:100000004EC05DC05CC05BC05AC059C058C057C02C
:1000100057C055C054C053C052C051C050C04FC04B
:100020004EC04DC04CC04BC072C049C048C047C054
:1000300046C045C044C043C042C041C040C0008625
:10004000227E6DD24620290B2170104080523F063F
:100050005B4F666D7D077F6F090D614843D35F7706
:100060007C395E79713D76301E753815373F736B7C
:10007000336D783E3E2A766E5B39640F2308025F4B
:100080007C585E7B716F74100C753014545C736710
:10009000506D781C1C14766E5B4630700100112484
:1000A0001FBECFEFCDBFDFE3DEBF2FE3A0E0BEE397
:1000B00001C01D92A136B207E1F7A5D496C5A0CF25
:1000C0001F920F920FB60F9211248F938091023ED0
:1000D0008F5F8093023E8091063E823079F480915A
:1000E000023E8F7359F48091040484FD04C080E1C2
:1000F0008093050403C080E18093060481E080932F
:100100000B0A8F910F900FBE0F901F9018951F92A2
:100110000F920FB60F9211242F933F934F935F933B
:100120006F937F938F939F93AF93BF93EF93FF93BF
:10013000E0E0F6E081E08387808991890024880FE0
:10014000991F001C880F991F001C892F902D20914A
:10015000003EE091043EF091053E30E2239FE00D29
:10016000F11D1124EE0FFF1FEB5EF14C8083918394
:1001700080E090E020E030E011C04091003EFC01C2
:1001800050E2459FE00DF11D1124EE0FFF1FEB5EC5
:10019000F14C40815181240F351F01968032910529
:1001A00060F336952795329522952F7023273F705F
:1001B00023278091033E882309F4F0C08091003EFC
:1001C000843008F0D9C0E091003EF0E0EE0FFF1F50
:1001D000EB5AF04C80819181892B49F4E091003EEB
:1001E000F0E0EE0FFF1FEB5AF04C20833183E091DB
:1001F000003EF0E0EE0FFF1FEB5AF04C8081918142
:100200008217930760F4E091003EF0E0EE0FFF1FCD
:10021000EB5AF04C80819181281B390B0DC0E09185
:10022000003EF0E0EE0FFF1FEB5AF04C8081918111
:10023000AC01421B530B9A0126303105C8F0E09106
:10024000003EF0E0EF5EF14C8081853048F4E091B3
:10025000003EF0E0EF5EF14C80818F5F80830EC046
:10026000E091003EF0E0E35FF14C81E0808306C066
:10027000E091003EF0E0EF5EF14C10828091003E94
:10028000882391F064C0482F50E0FA01E35FF14CFD
:100290009081992339F0FA01E95FF14C9081953012
:1002A00008F061E08F5F02C080E060E0843058F3C6
:1002B000611140C080E049C0482F50E0FA01E35F7F
:1002C000F14C90819923A1F1FA01E95FF14C908101
:1002D00091112AC0FA01E35AF04C90819F5F9083FC
:1002E0009081953128F191E0980F9093013E91E033
:1002F0009093063E90E1909305049091480493FDFD
:1003000004C090E29093250403C090E290932604E9
:100310009091480492FD04C090E19093250408C098
:1003200090E19093260404C0FA01E35AF04C108245
:100330008F5F01C080E0843008F4BECF08C0E82F92
:10034000F0E0E35AF04C10828F5F8430C0F3AAEFE4
:10035000B0E03FD4DC01CB01072E7AE0B695A7953B
:10036000979587957A95D1F7702DE091003EF0E052
:10037000E95FF14C808312C0A8EDB6ED2AD4DC0110
:10038000CB01072E7AE0B695A795979587957A9534
:10039000D1F7702D80930B3E90930C3E8091003EE0
:1003A00091E0980F9093003E8430B1F41092003E9B
:1003B0008091043E9091053E9C012F5F3F4F20931A
:1003C000043E3093053E4F9739F41092043E10924C
:1003D000053E81E08093033E8091003E811104C080
:1003E0008BE0809306061FC08091003E813021F48F
:1003F00085E08093060617C08091003E823021F48C
:1004000086E0809306060FC08091003E833021F481
:1004100087E08093060607C08091003E843019F47F
:100420008AE08093060681E080930806FF91EF91B1
:10043000BF91AF919F918F917F916F915F914F91FC
:100440003F912F910F900FBE0F901F90189594E041
:1004500090930604000097E01AC028E02093060459
:10046000282F30E0092E02C0359527950A94E2F72F
:1004700020FD04C022E02093060403C022E0209364
:100480000504000028E020930504000091509F3FE0
:1004900021F788E08093060487E01AC098E09093E3
:1004A0000604262F30E0082E02C0359527950A94C1
:1004B000E2F720FD04C092E09093060403C092E0AE
:1004C00090930504000098E090930504000081508B
:1004D0008F3F21F7E0E0F4E088E08683000084E0CD
:1004E000858300000895BC0184E080930604000029
:1004F00087E01AC098E09093060424E030E0082ECC
:1005000002C0359527950A94E2F720FD04C092E0D9
:100510009093060403C092E090930504000098E0D5
:1005200090930504000081508F3F21F788E080936D
:10053000060440E022C028E020930604FB01E40FFB
:10054000F11D208130E0092E02C0359527950A94CF
:10055000E2F720FD04C082E08093060403C082E03D
:1005600080930504000028E02093050400009150CA
:1005700001C097E09F3FF9F64F5F4C30D0F3E0E0C9
:10058000F4E088E08683000084E08583000008951D
:10059000EF92FF921F93CF93DF9388ED84BF85E0A6
:1005A00080936100E0E0F4E08EE0818314E0158345
:1005B00088E0868390E191836894EE24E5F8FF2437
:1005C000F2F890E3F7019183C0E4D4E0888B898B43
:1005D0008A8B8B8B6CE280E03ADF60E080E037DF73
:1005E00061E082E034DFE0E0FAE087EA91E686A3AA
:1005F00097A381E0828780831D8B1E8B1F8BF70161
:10060000108B118BE0E0F6E0108296E0918391E58B
:1006100092839BE096839081916090838287789407
:10062000DF91CF911F91FF90EF9008952F923F920D
:100630004F925F926F927F928F929F92AF92BF92F2
:10064000CF92DF92EF92FF920F931F93CF93DF939E
:10065000CDB7DEB7A097CDBFDEBF6D8B7E8BBE0161
:100660006F5F7F4F5B0168E0F50111926A95E9F7D2
:100670005E01F9E0AF0EB11C6CE0F50111926A95D4
:10068000E9F760E070E01D0115C0FC01E60FF71FFF
:10069000E081EE2369F0F0E0E25EFF4FE491AA24EE
:1006A000A394B12CAC0EBD1EA60EB71ED501EC93C3
:1006B0006F5F7F4F6830710540F3A12C7A2D6AC0BF
:1006C000872F90E0E1E0F0E0EC0FFD1FE80FF91F4D
:1006D000608165FB882480F8912C880F991FF401B4
:1006E000082E02C0EE0FFF1F0A94E2F73C843E2A58
:1006F000262F217030E05C01BFEFAB1ABB0AF90175
:100700000A2C02C0EE0FFF1F0A94E2F7E329EC87E0
:1007100066FB442740F950E0FA01082E02C0EE0FB4
:10072000FF1F0A94E2F799859E2B61FBAA27A0F987
:10073000B0E0FD010A2C02C0EE0FFF1F0A94E2F7A1
:10074000E92BE98764FB002700F910E0F801082E87
:1007500002C0EE0FFF1F0A94E2F79A899E2B62FBFC
:10076000EE24E0F8F12CF70102C0EE0FFF1FAA946F
:10077000E2F7E92BEA8B63FBCC24C0F8D12CF6011D
:1007800002C0EE0FFF1F8A95E2F7CF019F85892BEC
:100790008F877F5F743008F493CF70E0B72E73C0FB
:1007A0004B2D50E087E090E0841B950B88248394C8
:1007B000912C8C0E9D1E880D991DDC018C9185FB62
:1007C000662760F970E09A012F5F3F4F220F331FB9
:1007D0006B01022E02C0CC0CDD1C0A94E2F79D8551
:1007E0009C29E82FE170F0E0440F551F4F5F5F4FE9
:1007F0006F01042E02C0CC0CDD1C0A94E2F7C92A5A
:10080000CD8686FBAA27A0F9B0E06D01022E02C0BA
:10081000CC0CDD1C0A94E2F79A859C2981FB002709
:1008200000F910E06801042E02C0CC0CDD1C0A9413
:10083000E2F7C92ACA8684FBEE24E0F8F12C6701AE
:10084000022E02C0CC0CDD1C0A94E2F79B89C92A57
:1008500082FB442440F8512C420102C0880C991CB0
:100860004A95E2F7A4014C294B8B83FB662460F880
:10087000712CC30102C0880F991F2A95E2F798894D
:10088000892B888BB3946894992491F89B1408F071
:1008900087CF8D8140E8849F900111249D85292B6D
:1008A0002D87282F269560E8269F900111249A8590
:1008B000292B2A87282F2695269570E8279F9001B7
:1008C00011249B89292B2B8B85FB992790F99E87D7
:1008D00086FB992790F99B8784FB992790F99C8B3D
:1008E00083FB882780F9898BAD89BE898C91882309
:1008F00019F08F8582608F87AD89BE8911968C91A2
:10090000882319F08F8580628F87AD89BE89129602
:100910008C91882319F088898068888BAD89BE897D
:1009200013968C91882319F088898860888BCE0172
:100930000996D9DDA096CDBFDEBFDF91CF911F9183
:100940000F91FF90EF90DF90CF90BF90AF909F906E
:100950008F907F906F905F904F903F902F90089571
:10096000CF93DF939C01A0E048C0EA2FF0E0EA01BA
:10097000CE0FDF1F81E08883E20FF31F8081853671
:1009800050F0188280819DEC899F812D11248695DD
:1009900086958695808380819DEC899F812D112489
:1009A00086958695869549F0CA2FD0E0CC0FDD1F3D
:1009B000C60FD71F805D888307C0CA2FD0E0CC0F39
:1009C000DD1FC60FD71F1882E0819DECE99F912D96
:1009D0001124969596959695990F892F880F880FD3
:1009E000980FE91B9E2FEA2FF0E0EE0FFF1F3196C4
:1009F000E60FF71F905D9083AF5FA43008F4B5CF8A
:100A0000DF91CF910895CF93DF93CDB7DEB7A09755
:100A1000CDBFDEBFBDDD81E08D8B8E8B8F8B888F50
:100A2000198E1A8E1B8E1C8E10E025C08091023EFE
:100A30008F73E1F70AC0EDE0F0E0EC0FFD1FE80F67
:100A4000F11D90E3910F90838F5F8830A0F310FF2A
:100A500007C0BE01675E7F4FCE010D96E7DD06C081
:100A6000BE016B5E7F4FCE010D96E0DD8091023EB0
:100A70008F73E1F31F5F1A30C8F2BE01675E7F4FCC
:100A80008EEE9BE8D3DD8091023E8F73E1F781E02B
:100A9000809308068091480483FD04C080E280931F
:100AA000260403C080E2809325048091480482FDDF
:100AB00005C080E180932604F12C05C080E180937D
:100AC0002504FACFF12C8091013E8823A1F087E024
:100AD000E6EFFBE8DE01119601900D928A95E1F7B1
:100AE0008091013E805D8887BE01675E7F4FCE01A9
:100AF00001969CDD5EC0F11010C0AE01475F5F4FF4
:100B0000BE016F5F7F4F87E09EE32ADFBE01675F14
:100B10007F4FCE0101968ADD4CC021E0F21249C020
:100B200000910B3E10910C3E1D8E81E08E8F1F8E2A
:100B300018A240E050E030C09801ADECBCEC49D0C8
:100B40009695879596958795969587959C01220F02
:100B5000331F880F991F880F991F880F991F820FC5
:100B6000931F9801281B390BC901E5E0F0E0E41B55
:100B7000F50B21E030E02C0F3D1FE20FF31F805DED
:100B80008083980126D08C011695079516950795B8
:100B9000169507954F5F5F4F4530510568F21982F2
:100BA00086E58F831886BE01635E7F4FCE01019676
:100BB0003DDD8091023E811186CF8091023E8823E7
:100BC000E1F381E08F0D31E0F31609F47BCFF82ECD
:100BD0007ACFA29FB001B39FC001A39F01D0B29F63
:0E0BE000700D811D1124911D0895F894FFCF12
:0F0BEE00424154204D4F4E00444953434F4E0057
:00000001FF
